{
  "contractName": "Dex",
  "abi": [
    {
      "inputs": [],
      "stateMutability": "nonpayable",
      "type": "constructor"
    },
    {
      "anonymous": false,
      "inputs": [
        {
          "indexed": false,
          "internalType": "uint256",
          "name": "tradeId",
          "type": "uint256"
        },
        {
          "indexed": false,
          "internalType": "uint256",
          "name": "orderId",
          "type": "uint256"
        },
        {
          "indexed": true,
          "internalType": "bytes32",
          "name": "ticker",
          "type": "bytes32"
        },
        {
          "indexed": true,
          "internalType": "address",
          "name": "trader1",
          "type": "address"
        },
        {
          "indexed": true,
          "internalType": "address",
          "name": "trader2",
          "type": "address"
        },
        {
          "indexed": false,
          "internalType": "uint256",
          "name": "amount",
          "type": "uint256"
        },
        {
          "indexed": false,
          "internalType": "uint256",
          "name": "price",
          "type": "uint256"
        },
        {
          "indexed": false,
          "internalType": "uint256",
          "name": "date",
          "type": "uint256"
        }
      ],
      "name": "NewTrade",
      "type": "event"
    },
    {
      "inputs": [],
      "name": "admin",
      "outputs": [
        {
          "internalType": "address",
          "name": "",
          "type": "address"
        }
      ],
      "stateMutability": "view",
      "type": "function",
      "constant": true
    },
    {
      "inputs": [],
      "name": "nextOrderId",
      "outputs": [
        {
          "internalType": "uint256",
          "name": "",
          "type": "uint256"
        }
      ],
      "stateMutability": "view",
      "type": "function",
      "constant": true
    },
    {
      "inputs": [],
      "name": "nextTradeId",
      "outputs": [
        {
          "internalType": "uint256",
          "name": "",
          "type": "uint256"
        }
      ],
      "stateMutability": "view",
      "type": "function",
      "constant": true
    },
    {
      "inputs": [
        {
          "internalType": "bytes32",
          "name": "",
          "type": "bytes32"
        },
        {
          "internalType": "uint256",
          "name": "",
          "type": "uint256"
        },
        {
          "internalType": "uint256",
          "name": "",
          "type": "uint256"
        }
      ],
      "name": "orderBook",
      "outputs": [
        {
          "internalType": "uint256",
          "name": "id",
          "type": "uint256"
        },
        {
          "internalType": "address",
          "name": "trader",
          "type": "address"
        },
        {
          "internalType": "enum Dex.Side",
          "name": "side",
          "type": "uint8"
        },
        {
          "internalType": "bytes32",
          "name": "ticker",
          "type": "bytes32"
        },
        {
          "internalType": "uint256",
          "name": "amount",
          "type": "uint256"
        },
        {
          "internalType": "uint256",
          "name": "filled",
          "type": "uint256"
        },
        {
          "internalType": "uint256",
          "name": "price",
          "type": "uint256"
        },
        {
          "internalType": "uint256",
          "name": "date",
          "type": "uint256"
        }
      ],
      "stateMutability": "view",
      "type": "function",
      "constant": true
    },
    {
      "inputs": [
        {
          "internalType": "uint256",
          "name": "",
          "type": "uint256"
        }
      ],
      "name": "tokenList",
      "outputs": [
        {
          "internalType": "bytes32",
          "name": "",
          "type": "bytes32"
        }
      ],
      "stateMutability": "view",
      "type": "function",
      "constant": true
    },
    {
      "inputs": [
        {
          "internalType": "bytes32",
          "name": "",
          "type": "bytes32"
        }
      ],
      "name": "tokens",
      "outputs": [
        {
          "internalType": "bytes32",
          "name": "ticker",
          "type": "bytes32"
        },
        {
          "internalType": "address",
          "name": "tokenAddress",
          "type": "address"
        }
      ],
      "stateMutability": "view",
      "type": "function",
      "constant": true
    },
    {
      "inputs": [
        {
          "internalType": "address",
          "name": "",
          "type": "address"
        },
        {
          "internalType": "bytes32",
          "name": "",
          "type": "bytes32"
        }
      ],
      "name": "traderBalances",
      "outputs": [
        {
          "internalType": "uint256",
          "name": "",
          "type": "uint256"
        }
      ],
      "stateMutability": "view",
      "type": "function",
      "constant": true
    },
    {
      "inputs": [
        {
          "internalType": "bytes32",
          "name": "ticker",
          "type": "bytes32"
        },
        {
          "internalType": "enum Dex.Side",
          "name": "side",
          "type": "uint8"
        }
      ],
      "name": "getOrders",
      "outputs": [
        {
          "components": [
            {
              "internalType": "uint256",
              "name": "id",
              "type": "uint256"
            },
            {
              "internalType": "address",
              "name": "trader",
              "type": "address"
            },
            {
              "internalType": "enum Dex.Side",
              "name": "side",
              "type": "uint8"
            },
            {
              "internalType": "bytes32",
              "name": "ticker",
              "type": "bytes32"
            },
            {
              "internalType": "uint256",
              "name": "amount",
              "type": "uint256"
            },
            {
              "internalType": "uint256",
              "name": "filled",
              "type": "uint256"
            },
            {
              "internalType": "uint256",
              "name": "price",
              "type": "uint256"
            },
            {
              "internalType": "uint256",
              "name": "date",
              "type": "uint256"
            }
          ],
          "internalType": "struct Dex.Order[]",
          "name": "",
          "type": "tuple[]"
        }
      ],
      "stateMutability": "view",
      "type": "function",
      "constant": true
    },
    {
      "inputs": [],
      "name": "getTokens",
      "outputs": [
        {
          "components": [
            {
              "internalType": "bytes32",
              "name": "ticker",
              "type": "bytes32"
            },
            {
              "internalType": "address",
              "name": "tokenAddress",
              "type": "address"
            }
          ],
          "internalType": "struct Dex.Token[]",
          "name": "",
          "type": "tuple[]"
        }
      ],
      "stateMutability": "view",
      "type": "function",
      "constant": true
    },
    {
      "inputs": [
        {
          "internalType": "bytes32",
          "name": "ticker",
          "type": "bytes32"
        },
        {
          "internalType": "address",
          "name": "tokenAddress",
          "type": "address"
        }
      ],
      "name": "addToken",
      "outputs": [],
      "stateMutability": "nonpayable",
      "type": "function"
    },
    {
      "inputs": [
        {
          "internalType": "uint256",
          "name": "amount",
          "type": "uint256"
        },
        {
          "internalType": "bytes32",
          "name": "ticker",
          "type": "bytes32"
        }
      ],
      "name": "deposit",
      "outputs": [],
      "stateMutability": "nonpayable",
      "type": "function"
    },
    {
      "inputs": [
        {
          "internalType": "uint256",
          "name": "amount",
          "type": "uint256"
        },
        {
          "internalType": "bytes32",
          "name": "ticker",
          "type": "bytes32"
        }
      ],
      "name": "withdraw",
      "outputs": [],
      "stateMutability": "nonpayable",
      "type": "function"
    },
    {
      "inputs": [
        {
          "internalType": "bytes32",
          "name": "ticker",
          "type": "bytes32"
        },
        {
          "internalType": "uint256",
          "name": "amount",
          "type": "uint256"
        },
        {
          "internalType": "uint256",
          "name": "price",
          "type": "uint256"
        },
        {
          "internalType": "enum Dex.Side",
          "name": "side",
          "type": "uint8"
        }
      ],
      "name": "createLimitOrder",
      "outputs": [],
      "stateMutability": "nonpayable",
      "type": "function"
    },
    {
      "inputs": [
        {
          "internalType": "bytes32",
          "name": "ticker",
          "type": "bytes32"
        },
        {
          "internalType": "uint256",
          "name": "amount",
          "type": "uint256"
        },
        {
          "internalType": "enum Dex.Side",
          "name": "side",
          "type": "uint8"
        }
      ],
      "name": "createMarketOrder",
      "outputs": [],
      "stateMutability": "nonpayable",
      "type": "function"
    }
  ],
  "bytecode": "0x608060405234801561001057600080fd5b5033600460006101000a81548173ffffffffffffffffffffffffffffffffffffffff021916908373ffffffffffffffffffffffffffffffffffffffff16021790555061377e806100616000396000f3fe608060405234801561001057600080fd5b50600436106100ea5760003560e01c80639776aacf1161008c578063aa6ca80811610066578063aa6ca80814610277578063c9630cb014610295578063d9c0c950146102b1578063f851a440146102cd576100ea565b80639776aacf1461020f5780639ead72221461022b578063a8d2021a1461025b576100ea565b806372ce957e116100c857806372ce957e146101745780637f2c6246146101a4578063813ad083146101c0578063904194a3146101de576100ea565b80630bb431b6146100ef5780632a58b3301461012657806346e9658b14610144575b600080fd5b61010960048036038101906101049190612cc7565b6102eb565b60405161011d989796959493929190613372565b60405180910390f35b61012e61038a565b60405161013b9190613357565b60405180910390f35b61015e60048036038101906101599190612c3c565b610390565b60405161016b919061320f565b60405180910390f35b61018e60048036038101906101899190612b72565b610566565b60405161019b9190613357565b60405180910390f35b6101be60048036038101906101b99190612c78565b61058b565b005b6101c86116fc565b6040516101d59190613357565b60405180910390f35b6101f860048036038101906101f39190612bd7565b611702565b60405161020692919061326e565b60405180910390f35b61022960048036038101906102249190612c00565b611746565b005b61024560048036038101906102409190612d79565b611894565b6040516102529190613253565b60405180910390f35b61027560048036038101906102709190612da2565b6118b8565b005b61027f611b20565b60405161028c9190613231565b60405180910390f35b6102af60048036038101906102aa9190612da2565b611d11565b005b6102cb60048036038101906102c69190612d16565b611ee8565b005b6102d5612ab0565b6040516102e29190613194565b60405180910390f35b6003602052826000526040600020602052816000526040600020818154811061031357600080fd5b906000526020600020906007020160009250925050508060000154908060010160009054906101000a900473ffffffffffffffffffffffffffffffffffffffff16908060010160149054906101000a900460ff16908060020154908060030154908060040154908060050154908060060154905088565b60055481565b60606003600084815260200190815260200160002060008360018111156103e0577f4e487b7100000000000000000000000000000000000000000000000000000000600052602160045260246000fd5b8152602001908152602001600020805480602002602001604051908101604052809291908181526020016000905b8282101561055a578382906000526020600020906007020160405180610100016040529081600082015481526020016001820160009054906101000a900473ffffffffffffffffffffffffffffffffffffffff1673ffffffffffffffffffffffffffffffffffffffff1673ffffffffffffffffffffffffffffffffffffffff1681526020016001820160149054906101000a900460ff1660018111156104dd577f4e487b7100000000000000000000000000000000000000000000000000000000600052602160045260246000fd5b6001811115610515577f4e487b7100000000000000000000000000000000000000000000000000000000600052602160045260246000fd5b8152602001600282015481526020016003820154815260200160048201548152602001600582015481526020016006820154815250508152602001906001019061040e565b50505050905092915050565b6002602052816000526040600020602052806000526040600020600091509150505481565b82600073ffffffffffffffffffffffffffffffffffffffff1660008083815260200190815260200160002060010160009054906101000a900473ffffffffffffffffffffffffffffffffffffffff1673ffffffffffffffffffffffffffffffffffffffff161415610631576040517f08c379a000000000000000000000000000000000000000000000000000000000815260040161062890613297565b60405180910390fd5b837f4441490000000000000000000000000000000000000000000000000000000000811415610695576040517f08c379a000000000000000000000000000000000000000000000000000000000815260040161068c906132d7565b60405180910390fd5b6001808111156106ce577f4e487b7100000000000000000000000000000000000000000000000000000000600052602160045260246000fd5b836001811115610707577f4e487b7100000000000000000000000000000000000000000000000000000000600052602160045260246000fd5b14156107a15783600260003373ffffffffffffffffffffffffffffffffffffffff1673ffffffffffffffffffffffffffffffffffffffff16815260200190815260200160002060008781526020019081526020016000205410156107a0576040517f08c379a000000000000000000000000000000000000000000000000000000000815260040161079790613317565b60405180910390fd5b5b60006003600087815260200190815260200160002060008060018111156107f1577f4e487b7100000000000000000000000000000000000000000000000000000000600052602160045260246000fd5b86600181111561082a577f4e487b7100000000000000000000000000000000000000000000000000000000600052602160045260246000fd5b14610836576000610839565b60015b6001811115610871577f4e487b7100000000000000000000000000000000000000000000000000000000600052602160045260246000fd5b815260200190815260200160002090506000808690505b82805490508210801561089b5750600081115b1561139e5760008383815481106108db577f4e487b7100000000000000000000000000000000000000000000000000000000600052603260045260246000fd5b906000526020600020906007020160040154848481548110610926577f4e487b7100000000000000000000000000000000000000000000000000000000600052603260045260246000fd5b9060005260206000209060070201600301546109429190613576565b905060008183116109535782610955565b815b905080836109639190613576565b92508085858154811061099f577f4e487b7100000000000000000000000000000000000000000000000000000000600052603260045260246000fd5b906000526020600020906007020160040160008282546109bf91906134c6565b925050819055503373ffffffffffffffffffffffffffffffffffffffff16858581548110610a16577f4e487b7100000000000000000000000000000000000000000000000000000000600052603260045260246000fd5b906000526020600020906007020160010160009054906101000a900473ffffffffffffffffffffffffffffffffffffffff1673ffffffffffffffffffffffffffffffffffffffff168b7fdb0c486e680ba8026643e6a85f8d157b5e7bcd4b32b54d564542570a9eb20416600654898981548110610abc577f4e487b7100000000000000000000000000000000000000000000000000000000600052603260045260246000fd5b906000526020600020906007020160000154868b8b81548110610b08577f4e487b7100000000000000000000000000000000000000000000000000000000600052603260045260246000fd5b90600052602060002090600702016005015442604051610b2c9594939291906133f0565b60405180910390a4600180811115610b6d577f4e487b7100000000000000000000000000000000000000000000000000000000600052602160045260246000fd5b886001811115610ba6577f4e487b7100000000000000000000000000000000000000000000000000000000600052602160045260246000fd5b1415610f0b5780600260003373ffffffffffffffffffffffffffffffffffffffff1673ffffffffffffffffffffffffffffffffffffffff16815260200190815260200160002060008c81526020019081526020016000206000828254610c0c9190613576565b92505081905550848481548110610c4c577f4e487b7100000000000000000000000000000000000000000000000000000000600052603260045260246000fd5b90600052602060002090600702016005015481610c69919061351c565b600260003373ffffffffffffffffffffffffffffffffffffffff1673ffffffffffffffffffffffffffffffffffffffff16815260200190815260200160002060007f444149000000000000000000000000000000000000000000000000000000000081526020019081526020016000206000828254610ce891906134c6565b925050819055508060026000878781548110610d2d577f4e487b7100000000000000000000000000000000000000000000000000000000600052603260045260246000fd5b906000526020600020906007020160010160009054906101000a900473ffffffffffffffffffffffffffffffffffffffff1673ffffffffffffffffffffffffffffffffffffffff1673ffffffffffffffffffffffffffffffffffffffff16815260200190815260200160002060008c81526020019081526020016000206000828254610db991906134c6565b92505081905550848481548110610df9577f4e487b7100000000000000000000000000000000000000000000000000000000600052603260045260246000fd5b90600052602060002090600702016005015481610e16919061351c565b60026000878781548110610e53577f4e487b7100000000000000000000000000000000000000000000000000000000600052603260045260246000fd5b906000526020600020906007020160010160009054906101000a900473ffffffffffffffffffffffffffffffffffffffff1673ffffffffffffffffffffffffffffffffffffffff1673ffffffffffffffffffffffffffffffffffffffff16815260200190815260200160002060007f444149000000000000000000000000000000000000000000000000000000000081526020019081526020016000206000828254610eff9190613576565b9250508190555061136e565b848481548110610f44577f4e487b7100000000000000000000000000000000000000000000000000000000600052603260045260246000fd5b90600052602060002090600702016005015481610f61919061351c565b600260003373ffffffffffffffffffffffffffffffffffffffff1673ffffffffffffffffffffffffffffffffffffffff16815260200190815260200160002060007f44414900000000000000000000000000000000000000000000000000000000008152602001908152602001600020541015611013576040517f08c379a000000000000000000000000000000000000000000000000000000000815260040161100a906132b7565b60405180910390fd5b80600260003373ffffffffffffffffffffffffffffffffffffffff1673ffffffffffffffffffffffffffffffffffffffff16815260200190815260200160002060008c8152602001908152602001600020600082825461107391906134c6565b925050819055508484815481106110b3577f4e487b7100000000000000000000000000000000000000000000000000000000600052603260045260246000fd5b906000526020600020906007020160050154816110d0919061351c565b600260003373ffffffffffffffffffffffffffffffffffffffff1673ffffffffffffffffffffffffffffffffffffffff16815260200190815260200160002060007f44414900000000000000000000000000000000000000000000000000000000008152602001908152602001600020600082825461114f9190613576565b925050819055508060026000878781548110611194577f4e487b7100000000000000000000000000000000000000000000000000000000600052603260045260246000fd5b906000526020600020906007020160010160009054906101000a900473ffffffffffffffffffffffffffffffffffffffff1673ffffffffffffffffffffffffffffffffffffffff1673ffffffffffffffffffffffffffffffffffffffff16815260200190815260200160002060008c815260200190815260200160002060008282546112209190613576565b92505081905550848481548110611260577f4e487b7100000000000000000000000000000000000000000000000000000000600052603260045260246000fd5b9060005260206000209060070201600501548161127d919061351c565b600260008787815481106112ba577f4e487b7100000000000000000000000000000000000000000000000000000000600052603260045260246000fd5b906000526020600020906007020160010160009054906101000a900473ffffffffffffffffffffffffffffffffffffffff1673ffffffffffffffffffffffffffffffffffffffff1673ffffffffffffffffffffffffffffffffffffffff16815260200190815260200160002060007f44414900000000000000000000000000000000000000000000000000000000008152602001908152602001600020600082825461136691906134c6565b925050819055505b60016006600082825461138191906134c6565b9250508190555060018461139591906134c6565b93505050610888565b600091505b82805490508210801561144957508282815481106113ea577f4e487b7100000000000000000000000000000000000000000000000000000000600052603260045260246000fd5b906000526020600020906007020160030154838381548110611435577f4e487b7100000000000000000000000000000000000000000000000000000000600052603260045260246000fd5b906000526020600020906007020160040154145b156116f25760008290505b600184805490506114659190613576565b811015611622578360018261147a91906134c6565b815481106114b1577f4e487b7100000000000000000000000000000000000000000000000000000000600052603260045260246000fd5b90600052602060002090600702018482815481106114f8577f4e487b7100000000000000000000000000000000000000000000000000000000600052603260045260246000fd5b9060005260206000209060070201600082015481600001556001820160009054906101000a900473ffffffffffffffffffffffffffffffffffffffff168160010160006101000a81548173ffffffffffffffffffffffffffffffffffffffff021916908373ffffffffffffffffffffffffffffffffffffffff1602179055506001820160149054906101000a900460ff168160010160146101000a81548160ff021916908360018111156115d5577f4e487b7100000000000000000000000000000000000000000000000000000000600052602160045260246000fd5b02179055506002820154816002015560038201548160030155600482015481600401556005820154816005015560068201548160060155905050808061161a90613621565b915050611454565b508280548061165a577f4e487b7100000000000000000000000000000000000000000000000000000000600052603160045260246000fd5b60019003818190600052602060002090600702016000808201600090556001820160006101000a81549073ffffffffffffffffffffffffffffffffffffffff02191690556001820160146101000a81549060ff021916905560028201600090556003820160009055600482016000905560058201600090556006820160009055505090556001826116eb91906134c6565b91506113a3565b5050505050505050565b60065481565b60006020528060005260406000206000915090508060000154908060010160009054906101000a900473ffffffffffffffffffffffffffffffffffffffff16905082565b600460009054906101000a900473ffffffffffffffffffffffffffffffffffffffff1673ffffffffffffffffffffffffffffffffffffffff163373ffffffffffffffffffffffffffffffffffffffff16146117d6576040517f08c379a00000000000000000000000000000000000000000000000000000000081526004016117cd906132f7565b60405180910390fd5b60405180604001604052808381526020018273ffffffffffffffffffffffffffffffffffffffff168152506000808481526020019081526020016000206000820151816000015560208201518160010160006101000a81548173ffffffffffffffffffffffffffffffffffffffff021916908373ffffffffffffffffffffffffffffffffffffffff16021790555090505060018290806001815401808255809150506001900390600052602060002001600090919091909150555050565b600181815481106118a457600080fd5b906000526020600020016000915090505481565b80600073ffffffffffffffffffffffffffffffffffffffff1660008083815260200190815260200160002060010160009054906101000a900473ffffffffffffffffffffffffffffffffffffffff1673ffffffffffffffffffffffffffffffffffffffff16141561195e576040517f08c379a000000000000000000000000000000000000000000000000000000000815260040161195590613297565b60405180910390fd5b82600260003373ffffffffffffffffffffffffffffffffffffffff1673ffffffffffffffffffffffffffffffffffffffff16815260200190815260200160002060008481526020019081526020016000205410156119f1576040517f08c379a00000000000000000000000000000000000000000000000000000000081526004016119e890613337565b60405180910390fd5b82600260003373ffffffffffffffffffffffffffffffffffffffff1673ffffffffffffffffffffffffffffffffffffffff16815260200190815260200160002060008481526020019081526020016000206000828254611a519190613576565b9250508190555060008083815260200190815260200160002060010160009054906101000a900473ffffffffffffffffffffffffffffffffffffffff1673ffffffffffffffffffffffffffffffffffffffff1663a9059cbb33856040518363ffffffff1660e01b8152600401611ac89291906131e6565b602060405180830381600087803b158015611ae257600080fd5b505af1158015611af6573d6000803e3d6000fd5b505050506040513d601f19601f82011682018060405250810190611b1a9190612bae565b50505050565b6060600060018054905067ffffffffffffffff811115611b69577f4e487b7100000000000000000000000000000000000000000000000000000000600052604160045260246000fd5b604051908082528060200260200182016040528015611ba257816020015b611b8f612ad6565b815260200190600190039081611b875790505b50905060005b600180549050811015611d0957604051806040016040528060008060018581548110611bfd577f4e487b7100000000000000000000000000000000000000000000000000000000600052603260045260246000fd5b9060005260206000200154815260200190815260200160002060000154815260200160008060018581548110611c5c577f4e487b7100000000000000000000000000000000000000000000000000000000600052603260045260246000fd5b9060005260206000200154815260200190815260200160002060010160009054906101000a900473ffffffffffffffffffffffffffffffffffffffff1673ffffffffffffffffffffffffffffffffffffffff16815250828281518110611ceb577f4e487b7100000000000000000000000000000000000000000000000000000000600052603260045260246000fd5b60200260200101819052508080611d0190613621565b915050611ba8565b508091505090565b80600073ffffffffffffffffffffffffffffffffffffffff1660008083815260200190815260200160002060010160009054906101000a900473ffffffffffffffffffffffffffffffffffffffff1673ffffffffffffffffffffffffffffffffffffffff161415611db7576040517f08c379a0000000000000000000000000000000000000000000000000000000008152600401611dae90613297565b60405180910390fd5b60008083815260200190815260200160002060010160009054906101000a900473ffffffffffffffffffffffffffffffffffffffff1673ffffffffffffffffffffffffffffffffffffffff166323b872dd3330866040518463ffffffff1660e01b8152600401611e29939291906131af565b602060405180830381600087803b158015611e4357600080fd5b505af1158015611e57573d6000803e3d6000fd5b505050506040513d601f19601f82011682018060405250810190611e7b9190612bae565b5082600260003373ffffffffffffffffffffffffffffffffffffffff1673ffffffffffffffffffffffffffffffffffffffff16815260200190815260200160002060008481526020019081526020016000206000828254611edc91906134c6565b92505081905550505050565b83600073ffffffffffffffffffffffffffffffffffffffff1660008083815260200190815260200160002060010160009054906101000a900473ffffffffffffffffffffffffffffffffffffffff1673ffffffffffffffffffffffffffffffffffffffff161415611f8e576040517f08c379a0000000000000000000000000000000000000000000000000000000008152600401611f8590613297565b60405180910390fd5b847f4441490000000000000000000000000000000000000000000000000000000000811415611ff2576040517f08c379a0000000000000000000000000000000000000000000000000000000008152600401611fe9906132d7565b60405180910390fd5b60018081111561202b577f4e487b7100000000000000000000000000000000000000000000000000000000600052602160045260246000fd5b836001811115612064577f4e487b7100000000000000000000000000000000000000000000000000000000600052602160045260246000fd5b14156121025784600260003373ffffffffffffffffffffffffffffffffffffffff1673ffffffffffffffffffffffffffffffffffffffff16815260200190815260200160002060008881526020019081526020016000205410156120fd576040517f08c379a00000000000000000000000000000000000000000000000000000000081526004016120f490613317565b60405180910390fd5b6121c1565b838561210e919061351c565b600260003373ffffffffffffffffffffffffffffffffffffffff1673ffffffffffffffffffffffffffffffffffffffff16815260200190815260200160002060007f444149000000000000000000000000000000000000000000000000000000000081526020019081526020016000205410156121c0576040517f08c379a00000000000000000000000000000000000000000000000000000000081526004016121b7906132b7565b60405180910390fd5b5b6000600360008881526020019081526020016000206000856001811115612211577f4e487b7100000000000000000000000000000000000000000000000000000000600052602160045260246000fd5b815260200190815260200160002090508060405180610100016040528060055481526020013373ffffffffffffffffffffffffffffffffffffffff16815260200186600181111561228b577f4e487b7100000000000000000000000000000000000000000000000000000000600052602160045260246000fd5b8152602001898152602001888152602001600081526020018781526020014281525090806001815401808255809150506001900390600052602060002090600702016000909190919091506000820151816000015560208201518160010160006101000a81548173ffffffffffffffffffffffffffffffffffffffff021916908373ffffffffffffffffffffffffffffffffffffffff16021790555060408201518160010160146101000a81548160ff02191690836001811115612378577f4e487b7100000000000000000000000000000000000000000000000000000000600052602160045260246000fd5b0217905550606082015181600201556080820151816003015560a0820151816004015560c0820151816005015560e0820151816006015550506000808280549050116123c55760006123d7565b600182805490506123d69190613576565b5b90505b6000811115612a8c576000600181111561241d577f4e487b7100000000000000000000000000000000000000000000000000000000600052602160045260246000fd5b856001811115612456577f4e487b7100000000000000000000000000000000000000000000000000000000600052602160045260246000fd5b1480156125025750818181548110612497577f4e487b7100000000000000000000000000000000000000000000000000000000600052603260045260246000fd5b906000526020600020906007020160050154826001836124b79190613576565b815481106124ee577f4e487b7100000000000000000000000000000000000000000000000000000000600052603260045260246000fd5b906000526020600020906007020160050154115b1561250c57612a8c565b600180811115612545577f4e487b7100000000000000000000000000000000000000000000000000000000600052602160045260246000fd5b85600181111561257e577f4e487b7100000000000000000000000000000000000000000000000000000000600052602160045260246000fd5b14801561262a57508181815481106125bf577f4e487b7100000000000000000000000000000000000000000000000000000000600052603260045260246000fd5b906000526020600020906007020160050154826001836125df9190613576565b81548110612616577f4e487b7100000000000000000000000000000000000000000000000000000000600052603260045260246000fd5b906000526020600020906007020160050154105b1561263457612a8c565b6000826001836126449190613576565b8154811061267b577f4e487b7100000000000000000000000000000000000000000000000000000000600052603260045260246000fd5b906000526020600020906007020160405180610100016040529081600082015481526020016001820160009054906101000a900473ffffffffffffffffffffffffffffffffffffffff1673ffffffffffffffffffffffffffffffffffffffff1673ffffffffffffffffffffffffffffffffffffffff1681526020016001820160149054906101000a900460ff166001811115612740577f4e487b7100000000000000000000000000000000000000000000000000000000600052602160045260246000fd5b6001811115612778577f4e487b7100000000000000000000000000000000000000000000000000000000600052602160045260246000fd5b81526020016002820154815260200160038201548152602001600482015481526020016005820154815260200160068201548152505090508282815481106127e9577f4e487b7100000000000000000000000000000000000000000000000000000000600052603260045260246000fd5b9060005260206000209060070201836001846128059190613576565b8154811061283c577f4e487b7100000000000000000000000000000000000000000000000000000000600052603260045260246000fd5b9060005260206000209060070201600082015481600001556001820160009054906101000a900473ffffffffffffffffffffffffffffffffffffffff168160010160006101000a81548173ffffffffffffffffffffffffffffffffffffffff021916908373ffffffffffffffffffffffffffffffffffffffff1602179055506001820160149054906101000a900460ff168160010160146101000a81548160ff02191690836001811115612919577f4e487b7100000000000000000000000000000000000000000000000000000000600052602160045260246000fd5b021790555060028201548160020155600382015481600301556004820154816004015560058201548160050155600682015481600601559050508083838154811061298d577f4e487b7100000000000000000000000000000000000000000000000000000000600052603260045260246000fd5b90600052602060002090600702016000820151816000015560208201518160010160006101000a81548173ffffffffffffffffffffffffffffffffffffffff021916908373ffffffffffffffffffffffffffffffffffffffff16021790555060408201518160010160146101000a81548160ff02191690836001811115612a3d577f4e487b7100000000000000000000000000000000000000000000000000000000600052602160045260246000fd5b0217905550606082015181600201556080820151816003015560a0820151816004015560c0820151816005015560e08201518160060155905050600182612a849190613576565b9150506123da565b600160056000828254612a9f91906134c6565b925050819055505050505050505050565b600460009054906101000a900473ffffffffffffffffffffffffffffffffffffffff1681565b604051806040016040528060008019168152602001600073ffffffffffffffffffffffffffffffffffffffff1681525090565b600081359050612b18816136dc565b92915050565b600081519050612b2d816136f3565b92915050565b600081359050612b428161370a565b92915050565b600081359050612b5781613721565b92915050565b600081359050612b6c81613731565b92915050565b60008060408385031215612b8557600080fd5b6000612b9385828601612b09565b9250506020612ba485828601612b33565b9150509250929050565b600060208284031215612bc057600080fd5b6000612bce84828501612b1e565b91505092915050565b600060208284031215612be957600080fd5b6000612bf784828501612b33565b91505092915050565b60008060408385031215612c1357600080fd5b6000612c2185828601612b33565b9250506020612c3285828601612b09565b9150509250929050565b60008060408385031215612c4f57600080fd5b6000612c5d85828601612b33565b9250506020612c6e85828601612b48565b9150509250929050565b600080600060608486031215612c8d57600080fd5b6000612c9b86828701612b33565b9350506020612cac86828701612b5d565b9250506040612cbd86828701612b48565b9150509250925092565b600080600060608486031215612cdc57600080fd5b6000612cea86828701612b33565b9350506020612cfb86828701612b5d565b9250506040612d0c86828701612b5d565b9150509250925092565b60008060008060808587031215612d2c57600080fd5b6000612d3a87828801612b33565b9450506020612d4b87828801612b5d565b9350506040612d5c87828801612b5d565b9250506060612d6d87828801612b48565b91505092959194509250565b600060208284031215612d8b57600080fd5b6000612d9984828501612b5d565b91505092915050565b60008060408385031215612db557600080fd5b6000612dc385828601612b5d565b9250506020612dd485828601612b33565b9150509250929050565b6000612dea83836130a5565b6101008301905092915050565b6000612e038383613147565b60408301905092915050565b612e18816135aa565b82525050565b612e27816135aa565b82525050565b6000612e3882613463565b612e428185613493565b9350612e4d83613443565b8060005b83811015612e7e578151612e658882612dde565b9750612e7083613479565b925050600181019050612e51565b5085935050505092915050565b6000612e968261346e565b612ea081856134a4565b9350612eab83613453565b8060005b83811015612edc578151612ec38882612df7565b9750612ece83613486565b925050600181019050612eaf565b5085935050505092915050565b612ef2816135c8565b82525050565b612f01816135c8565b82525050565b612f108161360f565b82525050565b612f1f8161360f565b82525050565b6000612f32601a836134b5565b91507f5468697320746f6b656e20646f6573206e6f74206578697374210000000000006000830152602082019050919050565b6000612f726017836134b5565b91507f4441492062616c616e636520697320746f6f206c6f77210000000000000000006000830152602082019050919050565b6000612fb26015836134b5565b91507f596f752063616e6e6f74207472616465204441492100000000000000000000006000830152602082019050919050565b6000612ff2600f836134b5565b91507f4f6e6c7920666f722061646d696e2100000000000000000000000000000000006000830152602082019050919050565b60006130326019836134b5565b91507f546f6b656e2062616c616e636520697320746f6f206c6f7721000000000000006000830152602082019050919050565b60006130726013836134b5565b91507f42616c616e636520697320746f6f206c6f7721000000000000000000000000006000830152602082019050919050565b610100820160008201516130bc6000850182613176565b5060208201516130cf6020850182612e0f565b5060408201516130e26040850182612f07565b5060608201516130f56060850182612ee9565b5060808201516131086080850182613176565b5060a082015161311b60a0850182613176565b5060c082015161312e60c0850182613176565b5060e082015161314160e0850182613176565b50505050565b60408201600082015161315d6000850182612ee9565b5060208201516131706020850182612e0f565b50505050565b61317f81613605565b82525050565b61318e81613605565b82525050565b60006020820190506131a96000830184612e1e565b92915050565b60006060820190506131c46000830186612e1e565b6131d16020830185612e1e565b6131de6040830184613185565b949350505050565b60006040820190506131fb6000830185612e1e565b6132086020830184613185565b9392505050565b600060208201905081810360008301526132298184612e2d565b905092915050565b6000602082019050818103600083015261324b8184612e8b565b905092915050565b60006020820190506132686000830184612ef8565b92915050565b60006040820190506132836000830185612ef8565b6132906020830184612e1e565b9392505050565b600060208201905081810360008301526132b081612f25565b9050919050565b600060208201905081810360008301526132d081612f65565b9050919050565b600060208201905081810360008301526132f081612fa5565b9050919050565b6000602082019050818103600083015261331081612fe5565b9050919050565b6000602082019050818103600083015261333081613025565b9050919050565b6000602082019050818103600083015261335081613065565b9050919050565b600060208201905061336c6000830184613185565b92915050565b600061010082019050613388600083018b613185565b613395602083018a612e1e565b6133a26040830189612f16565b6133af6060830188612ef8565b6133bc6080830187613185565b6133c960a0830186613185565b6133d660c0830185613185565b6133e360e0830184613185565b9998505050505050505050565b600060a0820190506134056000830188613185565b6134126020830187613185565b61341f6040830186613185565b61342c6060830185613185565b6134396080830184613185565b9695505050505050565b6000819050602082019050919050565b6000819050602082019050919050565b600081519050919050565b600081519050919050565b6000602082019050919050565b6000602082019050919050565b600082825260208201905092915050565b600082825260208201905092915050565b600082825260208201905092915050565b60006134d182613605565b91506134dc83613605565b9250827fffffffffffffffffffffffffffffffffffffffffffffffffffffffffffffffff038211156135115761351061366a565b5b828201905092915050565b600061352782613605565b915061353283613605565b9250817fffffffffffffffffffffffffffffffffffffffffffffffffffffffffffffffff048311821515161561356b5761356a61366a565b5b828202905092915050565b600061358182613605565b915061358c83613605565b92508282101561359f5761359e61366a565b5b828203905092915050565b60006135b5826135e5565b9050919050565b60008115159050919050565b6000819050919050565b60008190506135e0826136c8565b919050565b600073ffffffffffffffffffffffffffffffffffffffff82169050919050565b6000819050919050565b600061361a826135d2565b9050919050565b600061362c82613605565b91507fffffffffffffffffffffffffffffffffffffffffffffffffffffffffffffffff82141561365f5761365e61366a565b5b600182019050919050565b7f4e487b7100000000000000000000000000000000000000000000000000000000600052601160045260246000fd5b7f4e487b7100000000000000000000000000000000000000000000000000000000600052602160045260246000fd5b600281106136d9576136d8613699565b5b50565b6136e5816135aa565b81146136f057600080fd5b50565b6136fc816135bc565b811461370757600080fd5b50565b613713816135c8565b811461371e57600080fd5b50565b6002811061372e57600080fd5b50565b61373a81613605565b811461374557600080fd5b5056fea2646970667358221220cfdb0836d5318c7d03cebe7f8266b155f7959d0f3986ac264c9215a629480c0a64736f6c63430008000033",
  "immutableReferences": {},
  "source": "pragma solidity 0.8.0;\r\n\r\nimport '@openzeppelin/contracts/token/ERC20/IERC20.sol';\r\n\r\ncontract Dex {\r\n    enum Side {\r\n        BUY,\r\n        SELL\r\n    }\r\n\r\n    struct Token {\r\n        bytes32 ticker;\r\n        address tokenAddress;\r\n    }\r\n\r\n    struct Order {\r\n        uint id;\r\n        address trader;\r\n        Side side;\r\n        bytes32 ticker;\r\n        uint amount;\r\n        uint filled;\r\n        uint price;\r\n        uint date;\r\n    }\r\n\r\n    mapping(bytes32 => Token) public tokens;\r\n    bytes32[] public tokenList;\r\n    mapping(address => mapping(bytes32 => uint)) public traderBalances;\r\n    mapping(bytes32 => mapping(uint => Order[])) public orderBook;\r\n    address public admin;\r\n    uint public nextOrderId;\r\n    uint public nextTradeId;\r\n    bytes32 constant DAI = bytes32('DAI');\r\n\r\n    event NewTrade(\r\n        uint tradeId, \r\n        uint orderId,\r\n        bytes32 indexed ticker,\r\n        address indexed trader1, \r\n        address indexed trader2,\r\n        uint amount,\r\n        uint price,\r\n        uint date\r\n    );\r\n\r\n    constructor() {\r\n        admin = msg.sender;\r\n    }\r\n\r\n    function getOrders(bytes32 ticker, Side side) external view returns(Order[] memory) {\r\n        return orderBook[ticker][uint(side)];\r\n    }\r\n\r\n    function getTokens() external view returns(Token[] memory) {\r\n        Token[] memory _tokens = new Token[](tokenList.length);\r\n        for(uint i = 0; i < tokenList.length; i++) {\r\n            _tokens[i] = Token(\r\n                tokens[tokenList[i]].ticker,\r\n                tokens[tokenList[i]].tokenAddress\r\n            );\r\n        }\r\n        return _tokens;\r\n    }\r\n\r\n    function addToken(bytes32 ticker, address tokenAddress) onlyAdmin() external {\r\n        tokens[ticker] = Token(ticker, tokenAddress);\r\n        tokenList.push(ticker);\r\n    }\r\n\r\n    function deposit(uint amount, bytes32 ticker) tokenExist(ticker) external {\r\n        IERC20(tokens[ticker].tokenAddress).transferFrom(msg.sender, address(this), amount);\r\n        traderBalances[msg.sender][ticker] += amount; \r\n    }\r\n\r\n    function withdraw(uint amount, bytes32 ticker) tokenExist(ticker) external {\r\n        require(traderBalances[msg.sender][ticker] >= amount, 'Balance is too low!');\r\n        traderBalances[msg.sender][ticker] -= amount;\r\n        IERC20(tokens[ticker].tokenAddress).transfer(msg.sender, amount);\r\n    }\r\n\r\n    function createLimitOrder(\r\n        bytes32 ticker,\r\n        uint amount,\r\n        uint price,\r\n        Side side\r\n    )\r\n    tokenExist(ticker)\r\n    tokenIsNotDai(ticker)\r\n    external {\r\n        if(side == Side.SELL) {\r\n            require(traderBalances[msg.sender][ticker] >= amount, 'Token balance is too low!');\r\n        } else {\r\n            require(traderBalances[msg.sender][DAI] >= amount * price, 'DAI balance is too low!');\r\n        }\r\n        Order[] storage orders = orderBook[ticker][uint(side)];\r\n        orders.push(Order(\r\n            nextOrderId,\r\n            msg.sender,\r\n            side,\r\n            ticker,\r\n            amount,\r\n            0,\r\n            price,\r\n            block.timestamp\r\n        ));\r\n        uint i = (orders.length > 0)? (orders.length - 1) : 0;\r\n        while(i > 0) {\r\n            if(side == Side.BUY && orders[i-1].price > orders[i].price) {\r\n                break;\r\n            }\r\n            if(side == Side.SELL && orders[i-1].price < orders[i].price) {\r\n                break;\r\n            }\r\n            Order memory order = orders[i-1];\r\n            orders[i-1] = orders[i];\r\n            orders[i] = order;\r\n            i -= 1;\r\n        }\r\n        nextOrderId += 1;\r\n    }\r\n\r\n    function createMarketOrder(\r\n        bytes32 ticker,\r\n        uint amount,\r\n        Side side\r\n    )\r\n    tokenExist(ticker)\r\n    tokenIsNotDai(ticker)\r\n    external {\r\n        if(side == Side.SELL) {\r\n            require(traderBalances[msg.sender][ticker] >= amount, 'Token balance is too low!');\r\n        }\r\n        Order[] storage orders = orderBook[ticker][uint(side == Side.BUY ? Side.SELL : Side.BUY)];\r\n        uint i;\r\n        uint remaining = amount;\r\n        while(i < orders.length && remaining > 0) {\r\n            uint available = orders[i].amount - orders[i].filled;\r\n            uint matched = (remaining > available)? available : remaining;\r\n            remaining -= matched;\r\n            orders[i].filled += matched;\r\n            emit NewTrade(\r\n                nextTradeId,\r\n                orders[i].id,\r\n                ticker,\r\n                orders[i].trader,\r\n                msg.sender,\r\n                matched,\r\n                orders[i].price,\r\n                block.timestamp\r\n            );\r\n            if(side == Side.SELL) {\r\n                traderBalances[msg.sender][ticker] -= matched;\r\n                traderBalances[msg.sender][DAI] += matched * orders[i].price; \r\n                traderBalances[orders[i].trader][ticker] += matched;\r\n                traderBalances[orders[i].trader][DAI] -= matched * orders[i].price;\r\n            } else {\r\n                require(traderBalances[msg.sender][DAI] >= matched * orders[i].price, \r\n                    'DAI balance is too low!');\r\n                traderBalances[msg.sender][ticker] += matched;\r\n                traderBalances[msg.sender][DAI] -= matched * orders[i].price; \r\n                traderBalances[orders[i].trader][ticker] -= matched;\r\n                traderBalances[orders[i].trader][DAI] += matched * orders[i].price;\r\n            }\r\n            nextTradeId += 1;\r\n            i += 1;\r\n        }\r\n        i = 0;\r\n        while(i < orders.length && orders[i].filled == orders[i].amount) {\r\n            for(uint j = i; j < orders.length - 1; j++) {\r\n                orders[j] = orders[j + 1];\r\n            }\r\n            orders.pop();\r\n            i += 1;\r\n        }\r\n    }\r\n\r\n    modifier tokenIsNotDai(bytes32 ticker) {\r\n        require(ticker != DAI, 'You cannot trade DAI!');\r\n        _;\r\n    }\r\n\r\n    modifier tokenExist(bytes32 ticker) {\r\n        require(tokens[ticker].tokenAddress != address(0), 'This token does not exist!');\r\n        _;\r\n    }\r\n\r\n    modifier onlyAdmin() {\r\n        require(msg.sender == admin, 'Only for admin!');\r\n        _;\r\n    }\r\n}\r\n",
  "sourcePath": "D:\\Users\\MirkoPezo\\git\\decentralized-exchange-erc20\\contracts\\Dex.sol",
  "compiler": {
    "name": "solc",
    "version": "0.8.0+commit.c7dfd78e.Emscripten.clang"
  },
  "schemaVersion": "3.4.3",
  "updatedAt": "2021-10-22T15:50:53.912Z",
  "networkType": "ethereum",
  "devdoc": {
    "kind": "dev",
    "methods": {},
    "version": 1
  },
  "userdoc": {
    "kind": "user",
    "methods": {},
    "version": 1
  }
}